{
  "contractName": "Task",
  "abi": [
    {
      "anonymous": false,
      "inputs": [
        {
          "indexed": false,
          "internalType": "uint256",
          "name": "TaskId",
          "type": "uint256"
        },
        {
          "indexed": false,
          "internalType": "string",
          "name": "title",
          "type": "string"
        },
        {
          "indexed": false,
          "internalType": "uint256",
          "name": "price",
          "type": "uint256"
        }
      ],
      "name": "NewTask",
      "type": "event"
    },
    {
      "constant": true,
      "inputs": [
        {
          "internalType": "uint256",
          "name": "",
          "type": "uint256"
        }
      ],
      "name": "TaskToOwner",
      "outputs": [
        {
          "internalType": "address",
          "name": "",
          "type": "address"
        }
      ],
      "payable": false,
      "stateMutability": "view",
      "type": "function"
    },
    {
      "constant": true,
      "inputs": [
        {
          "internalType": "uint256",
          "name": "",
          "type": "uint256"
        }
      ],
      "name": "tasks",
      "outputs": [
        {
          "internalType": "string",
          "name": "title",
          "type": "string"
        },
        {
          "internalType": "uint256",
          "name": "price",
          "type": "uint256"
        },
        {
          "internalType": "uint32",
          "name": "distance",
          "type": "uint32"
        }
      ],
      "payable": false,
      "stateMutability": "view",
      "type": "function"
    },
    {
      "constant": false,
      "inputs": [
        {
          "internalType": "string",
          "name": "_title",
          "type": "string"
        },
        {
          "internalType": "uint256",
          "name": "_price",
          "type": "uint256"
        },
        {
          "internalType": "uint32",
          "name": "_distance",
          "type": "uint32"
        }
      ],
      "name": "_createTask",
      "outputs": [],
      "payable": false,
      "stateMutability": "nonpayable",
      "type": "function"
    }
  ],
  "bytecode": "0x608060405234801561001057600080fd5b506105db806100206000396000f3fe608060405234801561001057600080fd5b50600436106100415760003560e01c80636ebbbb6a146100465780638d977672146100b45780639eb9f41c14610175575b600080fd5b6100726004803603602081101561005c57600080fd5b810190808035906020019092919050505061024a565b604051808273ffffffffffffffffffffffffffffffffffffffff1673ffffffffffffffffffffffffffffffffffffffff16815260200191505060405180910390f35b6100e0600480360360208110156100ca57600080fd5b810190808035906020019092919050505061027d565b60405180806020018481526020018363ffffffff1663ffffffff168152602001828103825285818151815260200191508051906020019080838360005b8381101561013857808201518184015260208101905061011d565b50505050905090810190601f1680156101655780820380516001836020036101000a031916815260200191505b5094505050505060405180910390f35b6102486004803603606081101561018b57600080fd5b81019080803590602001906401000000008111156101a857600080fd5b8201836020820111156101ba57600080fd5b803590602001918460018302840111640100000000831117156101dc57600080fd5b91908080601f016020809104026020016040519081016040528093929190818152602001838380828437600081840152601f19601f82011690508083019250505050505050919291929080359060200190929190803563ffffffff16906020019092919050505061035c565b005b60006020528060005260406000206000915054906101000a900473ffffffffffffffffffffffffffffffffffffffff1681565b6001818154811061028a57fe5b9060005260206000209060030201600091509050806000018054600181600116156101000203166002900480601f0160208091040260200160405190810160405280929190818152602001828054600181600116156101000203166002900480156103365780601f1061030b57610100808354040283529160200191610336565b820191906000526020600020905b81548152906001019060200180831161031957829003601f168201915b5050505050908060010154908060020160009054906101000a900463ffffffff16905083565b6000600160405180606001604052808681526020018581526020018463ffffffff168152509080600181540180825580915050906001820390600052602060002090600302016000909192909190915060008201518160000190805190602001906103c8929190610501565b506020820151816001015560408201518160020160006101000a81548163ffffffff021916908363ffffffff160217905550505090503360008083815260200190815260200160002060006101000a81548173ffffffffffffffffffffffffffffffffffffffff021916908373ffffffffffffffffffffffffffffffffffffffff1602179055507fcbe98ccceeea5d510e7e08ca39b87b37e15a54d75138311628f3e885a142b0958185856040518084815260200180602001838152602001828103825284818151815260200191508051906020019080838360005b838110156104bf5780820151818401526020810190506104a4565b50505050905090810190601f1680156104ec5780820380516001836020036101000a031916815260200191505b5094505050505060405180910390a150505050565b828054600181600116156101000203166002900490600052602060002090601f016020900481019282601f1061054257805160ff1916838001178555610570565b82800160010185558215610570579182015b8281111561056f578251825591602001919060010190610554565b5b50905061057d9190610581565b5090565b6105a391905b8082111561059f576000816000905550600101610587565b5090565b9056fea265627a7a723158203909caf4aa33fa33999903ead6f945f68c5e36678dead670b73c48ca718a68d164736f6c63430005100032",
  "source": "pragma solidity ^0.5.0;\n\ncontract Task {\n    event NewTask(uint TaskId, string title, uint price);\n    \n    \n\tstruct Task {\n\t\tstring title;\n\t\tuint price;\n\t\tuint32 distance;\n\t}\n\n    mapping (uint => address) public TaskToOwner;\n\n    Task[] public tasks;\n    function _createTask(string memory _title, uint _price, uint32 _distance) public {\n    uint id = tasks.push(Task(_title, _price, _distance));\n    TaskToOwner[id] = msg.sender;\n    emit NewTask(id, _title, _price);\n  }\n}",
  "sourcePath": "/Users/laurendutton/dev/karma_coin/contracts/Task.sol",
  "compiler": {
    "name": "solc",
    "version": "0.5.16+commit.9c3226ce.Emscripten.clang"
  },
  "schemaVersion": "3.2.5",
  "updatedAt": "2020-10-14T22:40:25.864Z",
  "networkType": "ethereum",
  "devdoc": {
    "methods": {}
  },
  "userdoc": {
    "methods": {}
  }
}