{
  "contractName": "test",
  "abi": [
    {
      "constant": true,
      "inputs": [],
      "name": "get",
      "outputs": [
        {
          "internalType": "string",
          "name": "",
          "type": "string"
        }
      ],
      "payable": false,
      "stateMutability": "view",
      "type": "function"
    }
  ],
  "bytecode": "0x60806040526040518060400160405280600781526020017f73646661736466000000000000000000000000000000000000000000000000008152506000908051906020019061004f929190610062565b5034801561005c57600080fd5b50610107565b828054600181600116156101000203166002900490600052602060002090601f016020900481019282601f106100a357805160ff19168380011785556100d1565b828001600101855582156100d1579182015b828111156100d05782518255916020019190600101906100b5565b5b5090506100de91906100e2565b5090565b61010491905b808211156101005760008160009055506001016100e8565b5090565b90565b61018a806101166000396000f3fe608060405234801561001057600080fd5b506004361061002b5760003560e01c80636d4ce63c14610030575b600080fd5b6100386100b3565b6040518080602001828103825283818151815260200191508051906020019080838360005b8381101561007857808201518184015260208101905061005d565b50505050905090810190601f1680156100a55780820380516001836020036101000a031916815260200191505b509250505060405180910390f35b606060008054600181600116156101000203166002900480601f01602080910402602001604051908101604052809291908181526020018280546001816001161561010002031660029004801561014b5780601f106101205761010080835404028352916020019161014b565b820191906000526020600020905b81548152906001019060200180831161012e57829003601f168201915b505050505090509056fea265627a7a72315820806ecfa76bdae2aca7357c3459a29ebf7058f5a1b6712c4e84d9eefcd6abb35564736f6c63430005100032",
  "source": "pragma solidity ^0.5.0;\n\ncontract test {\n    string testing = \"sdfasdf\";\n\n    \n    function get() public view returns (string memory) {\n        return testing;\n    }\n\n}",
  "sourcePath": "/Users/laurendutton/dev/karma_coin/contracts/address.sol",
  "compiler": {
    "name": "solc",
    "version": "0.5.16+commit.9c3226ce.Emscripten.clang"
  },
  "schemaVersion": "3.2.5",
  "updatedAt": "2020-10-14T00:22:22.073Z",
  "devdoc": {
    "methods": {}
  },
  "userdoc": {
    "methods": {}
  }
}